{"abi":[{"type":"constructor","inputs":[{"name":"_token","type":"address","internalType":"address"},{"name":"_oracle","type":"address","internalType":"address"}],"stateMutability":"nonpayable"},{"type":"function","name":"ORACLE","inputs":[],"outputs":[{"name":"","type":"address","internalType":"contract IRealityERC20"}],"stateMutability":"view"},{"type":"function","name":"PAYOUT_PER_POLICY","inputs":[],"outputs":[{"name":"","type":"uint256","internalType":"uint256"}],"stateMutability":"view"},{"type":"function","name":"QUESTION_TIMEOUT","inputs":[],"outputs":[{"name":"","type":"uint32","internalType":"uint32"}],"stateMutability":"view"},{"type":"function","name":"TEMPLATE_ID","inputs":[],"outputs":[{"name":"","type":"uint32","internalType":"uint32"}],"stateMutability":"view"},{"type":"function","name":"TOKEN","inputs":[],"outputs":[{"name":"","type":"address","internalType":"contract IERC20"}],"stateMutability":"view"},{"type":"function","name":"YES_ANSWER","inputs":[],"outputs":[{"name":"","type":"bytes32","internalType":"bytes32"}],"stateMutability":"view"},{"type":"function","name":"buyInsurance","inputs":[{"name":"flightId","type":"uint256","internalType":"uint256"}],"outputs":[],"stateMutability":"nonpayable"},{"type":"function","name":"calculateBuyerPayout","inputs":[{"name":"flightId","type":"uint256","internalType":"uint256"},{"name":"buyer","type":"address","internalType":"address"}],"outputs":[{"name":"","type":"uint256","internalType":"uint256"}],"stateMutability":"view"},{"type":"function","name":"calculateProducerRefund","inputs":[{"name":"flightId","type":"uint256","internalType":"uint256"}],"outputs":[{"name":"","type":"uint256","internalType":"uint256"}],"stateMutability":"view"},{"type":"function","name":"claimPayout","inputs":[{"name":"flightId","type":"uint256","internalType":"uint256"}],"outputs":[],"stateMutability":"nonpayable"},{"type":"function","name":"createInsurance","inputs":[{"name":"flightCode","type":"string","internalType":"string"},{"name":"departureAirport","type":"string","internalType":"string"},{"name":"arrivalAirport","type":"string","internalType":"string"},{"name":"departureTimestamp","type":"uint64","internalType":"uint64"},{"name":"delayThresholdMinutes","type":"uint16","internalType":"uint16"},{"name":"depositAmount","type":"uint256","internalType":"uint256"},{"name":"insurancePrice","type":"uint256","internalType":"uint256"},{"name":"totalPolicies","type":"uint256","internalType":"uint256"}],"outputs":[{"name":"flightId","type":"uint256","internalType":"uint256"}],"stateMutability":"nonpayable"},{"type":"function","name":"flights","inputs":[{"name":"","type":"uint256","internalType":"uint256"}],"outputs":[{"name":"producer","type":"address","internalType":"address"},{"name":"depositAmount","type":"uint256","internalType":"uint256"},{"name":"insurancePrice","type":"uint256","internalType":"uint256"},{"name":"totalPolicies","type":"uint256","internalType":"uint256"},{"name":"soldPolicies","type":"uint256","internalType":"uint256"},{"name":"questionId","type":"bytes32","internalType":"bytes32"},{"name":"settled","type":"bool","internalType":"bool"},{"name":"delayed","type":"bool","internalType":"bool"},{"name":"producerWithdrawable","type":"uint256","internalType":"uint256"},{"name":"producerWithdrawn","type":"bool","internalType":"bool"},{"name":"flightCode","type":"string","internalType":"string"},{"name":"departureAirport","type":"string","internalType":"string"},{"name":"arrivalAirport","type":"string","internalType":"string"},{"name":"departureTimestamp","type":"uint64","internalType":"uint64"},{"name":"delayThresholdMinutes","type":"uint16","internalType":"uint16"}],"stateMutability":"view"},{"type":"function","name":"getFlightInfo","inputs":[{"name":"flightId","type":"uint256","internalType":"uint256"}],"outputs":[{"name":"producer","type":"address","internalType":"address"},{"name":"depositAmount","type":"uint256","internalType":"uint256"},{"name":"insurancePrice","type":"uint256","internalType":"uint256"},{"name":"totalPolicies","type":"uint256","internalType":"uint256"},{"name":"soldPolicies","type":"uint256","internalType":"uint256"},{"name":"questionId","type":"bytes32","internalType":"bytes32"},{"name":"settled","type":"bool","internalType":"bool"},{"name":"delayed","type":"bool","internalType":"bool"},{"name":"producerWithdrawable","type":"uint256","internalType":"uint256"},{"name":"producerWithdrawn","type":"bool","internalType":"bool"}],"stateMutability":"view"},{"type":"function","name":"getFlightMetadata","inputs":[{"name":"flightId","type":"uint256","internalType":"uint256"}],"outputs":[{"name":"flightCode","type":"string","internalType":"string"},{"name":"departureAirport","type":"string","internalType":"string"},{"name":"arrivalAirport","type":"string","internalType":"string"},{"name":"departureTimestamp","type":"uint64","internalType":"uint64"},{"name":"delayThresholdMinutes","type":"uint16","internalType":"uint16"}],"stateMutability":"view"},{"type":"function","name":"getOracleAnswer","inputs":[{"name":"flightId","type":"uint256","internalType":"uint256"}],"outputs":[{"name":"","type":"bytes32","internalType":"bytes32"}],"stateMutability":"view"},{"type":"function","name":"getTotalFlights","inputs":[],"outputs":[{"name":"","type":"uint256","internalType":"uint256"}],"stateMutability":"view"},{"type":"function","name":"hasClaimedPayout","inputs":[{"name":"flightId","type":"uint256","internalType":"uint256"},{"name":"buyer","type":"address","internalType":"address"}],"outputs":[{"name":"","type":"bool","internalType":"bool"}],"stateMutability":"view"},{"type":"function","name":"hasPurchasedPolicy","inputs":[{"name":"flightId","type":"uint256","internalType":"uint256"},{"name":"buyer","type":"address","internalType":"address"}],"outputs":[{"name":"","type":"bool","internalType":"bool"}],"stateMutability":"view"},{"type":"function","name":"policies","inputs":[{"name":"","type":"uint256","internalType":"uint256"},{"name":"","type":"address","internalType":"address"}],"outputs":[{"name":"purchased","type":"bool","internalType":"bool"},{"name":"claimed","type":"bool","internalType":"bool"}],"stateMutability":"view"},{"type":"function","name":"settleInsurance","inputs":[{"name":"flightId","type":"uint256","internalType":"uint256"}],"outputs":[],"stateMutability":"nonpayable"},{"type":"function","name":"withdrawFunds","inputs":[{"name":"flightId","type":"uint256","internalType":"uint256"}],"outputs":[],"stateMutability":"nonpayable"},{"type":"event","name":"FundsWithdrawn","inputs":[{"name":"flightId","type":"uint256","indexed":true,"internalType":"uint256"},{"name":"producer","type":"address","indexed":true,"internalType":"address"},{"name":"amount","type":"uint256","indexed":false,"internalType":"uint256"}],"anonymous":false},{"type":"event","name":"InsuranceCreated","inputs":[{"name":"flightId","type":"uint256","indexed":true,"internalType":"uint256"},{"name":"producer","type":"address","indexed":true,"internalType":"address"},{"name":"depositAmount","type":"uint256","indexed":false,"internalType":"uint256"},{"name":"insurancePrice","type":"uint256","indexed":false,"internalType":"uint256"},{"name":"totalPolicies","type":"uint256","indexed":false,"internalType":"uint256"},{"name":"questionId","type":"bytes32","indexed":false,"internalType":"bytes32"},{"name":"flightQuestion","type":"string","indexed":false,"internalType":"string"},{"name":"flightCode","type":"string","indexed":false,"internalType":"string"},{"name":"departureAirport","type":"string","indexed":false,"internalType":"string"},{"name":"arrivalAirport","type":"string","indexed":false,"internalType":"string"},{"name":"departureTimestamp","type":"uint64","indexed":false,"internalType":"uint64"},{"name":"delayThresholdMinutes","type":"uint16","indexed":false,"internalType":"uint16"}],"anonymous":false},{"type":"event","name":"InsurancePurchased","inputs":[{"name":"flightId","type":"uint256","indexed":true,"internalType":"uint256"},{"name":"buyer","type":"address","indexed":true,"internalType":"address"},{"name":"insurancePrice","type":"uint256","indexed":false,"internalType":"uint256"}],"anonymous":false},{"type":"event","name":"InsuranceSettled","inputs":[{"name":"flightId","type":"uint256","indexed":true,"internalType":"uint256"},{"name":"delayed","type":"bool","indexed":false,"internalType":"bool"},{"name":"answer","type":"bytes32","indexed":false,"internalType":"bytes32"},{"name":"producerWithdrawable","type":"uint256","indexed":false,"internalType":"uint256"}],"anonymous":false},{"type":"event","name":"PayoutClaimed","inputs":[{"name":"flightId","type":"uint256","indexed":true,"internalType":"uint256"},{"name":"claimer","type":"address","indexed":true,"internalType":"address"},{"name":"amount","type":"uint256","indexed":false,"internalType":"uint256"}],"anonymous":false},{"type":"error","name":"AllPoliciesSold","inputs":[]},{"type":"error","name":"AlreadyClaimed","inputs":[]},{"type":"error","name":"AlreadyPurchased","inputs":[]},{"type":"error","name":"AlreadyWithdrawn","inputs":[]},{"type":"error","name":"FlightAlreadySettled","inputs":[]},{"type":"error","name":"FlightDoesNotExist","inputs":[]},{"type":"error","name":"FlightNotDelayed","inputs":[]},{"type":"error","name":"FlightNotSettled","inputs":[]},{"type":"error","name":"InsufficientDeposit","inputs":[]},{"type":"error","name":"InvalidDeposit","inputs":[]},{"type":"error","name":"InvalidPolicies","inputs":[]},{"type":"error","name":"InvalidPrice","inputs":[]},{"type":"error","name":"NoFundsToWithdraw","inputs":[]},{"type":"error","name":"NoPolicyPurchased","inputs":[]},{"type":"error","name":"NotProducer","inputs":[]},{"type":"error","name":"OracleNotResolved","inputs":[]},{"type":"error","name":"ReentrancyGuardReentrantCall","inputs":[]},{"type":"error","name":"SafeERC20FailedOperation","inputs":[{"name":"token","type":"address","internalType":"address"}]}],"bytecode":{"object":"0x60c0346200015757601f62001c1438819003918201601f19168301916001600160401b038311848410176200015b57808492604094855283398101031262000157576200005a602062000052836200016f565b92016200016f565b60015f556001600160a01b0391821691908215620001125716908115620000cd5760805260a052604051611a8f90816200018582396080518181816103490152818161057b015281816106250152610775015260a051818181610931015281816110850152818161122a01526114ca0152f35b60405162461bcd60e51b815260206004820152601660248201527f496e76616c6964206f7261636c652061646472657373000000000000000000006044820152606490fd5b60405162461bcd60e51b815260206004820152601560248201527f496e76616c696420746f6b656e206164647265737300000000000000000000006044820152606490fd5b5f80fd5b634e487b7160e01b5f52604160045260245ffd5b51906001600160a01b0382168203620001575756fe6080806040526004361015610012575f80fd5b5f3560e01c90816303f83fa8146115385750806313e9baef1461148b578063155dd5ee1461138557806315ccf70f1461125957806338013f02146112155780633b31eeae146111f85780634a3382e5146111db57806352c686861461101957806354f88ce51461069b57806358fb10391461065457806382bfefc81461061057806387eb502e146105f65780638a69614e146104b057806393286d69146104955780639bffa19514610477578063a86a658c146102c9578063c7954df1146102ab578063ccd384ce1461020a578063e2fbe39a14610167578063e8429b9e146101285763ef97649c14610103575f80fd5b3461012457602061011c61011636611572565b9061179a565b604051908152f35b5f80fd5b346101245761013636611572565b905f52600360205260405f209060018060a01b03165f52602052602060ff60405f205460081c166040519015158152f35b34610124576020366003190112610124576004355f5260026020526101d160405f20600c81015461ffff6101ed6101a06009850161160c565b936101df6101bc600b6101b5600a850161160c565b930161160c565b9160405197889760a0895260a08901906116cf565b9087820360208901526116cf565b9085820360408701526116cf565b916001600160401b038116606085015260401c1660808301520390f35b34610124576020366003190112610124576004355f52600260205261014060405f2060018060a01b038154169060018101549060ff60028201546003830154600484015460058501549160068601549385600860078901549801541697604051998a5260208a015260408901526060880152608087015260a0860152818116151560c086015260081c16151560e08401526101008301521515610120820152f35b34610124575f3660031901126101245760206040516305f5e1008152f35b3461012457602080600319360112610124576004356102e661181f565b5f818152600283526040902080546001600160a01b0316156104655760ff60068201541661045357600481019081546003820154111561044157825f526003845260405f20335f52845260ff60405f20541661042f576002019061036d825430337f0000000000000000000000000000000000000000000000000000000000000000611840565b6103778154611768565b905560405190604082018281106001600160401b0382111761041b577f40e4ffb0734fe626e5738cd4d24bdba3a32a5893de3969d9e4e9a50afa4cdfee9261040a91604052600181528581015f8152855f526003875260405f20335f5287526103f360405f2092511515839060ff801983541691151516179055565b51815461ff00191690151560081b61ff0016179055565b54926040519384523393a360015f55005b634e487b7160e01b5f52604160045260245ffd5b604051630cd9ed5560e21b8152600490fd5b6040516394a157e560e01b8152600490fd5b604051635af6421560e01b8152600490fd5b604051639618ff8960e01b8152600490fd5b3461012457602036600319011261012457602061011c600435611776565b34610124575f36600319011261012457602060405160018152f35b3461012457602080600319360112610124576004356104cd61181f565b805f5260028252600660405f20015460ff8116156105e45760081c60ff16156105d257805f526003825260405f20335f52825260405f20805460ff8116156105c05760ff8160081c166105ae5761ff00191661010017905560405163a9059cbb60e01b838201523360248201526305f5e10060448083018290528252927fe97cee5a4c0549d3fdc81e322b718ddf0aeb3418ec87dce4f9a7fb28d117c3129161059f90610579816115d0565b7f00000000000000000000000000000000000000000000000000000000000000006119ff565b6040519384523393a360015f55005b604051630c8d9eab60e31b8152600490fd5b6040516307cfe55d60e41b8152600490fd5b604051634f84604b60e11b8152600490fd5b604051635eb0519960e11b8152600490fd5b34610124575f3660031901126101245760206040515f8152f35b34610124575f366003190112610124576040517f00000000000000000000000000000000000000000000000000000000000000006001600160a01b03168152602090f35b346101245761066236611572565b905f52600360205260405f209060018060a01b03165f526020526040805f205460ff8251918181161515835260081c1615156020820152f35b3461012457610100366003190112610124576004356001600160401b038111610124576106cc90369060040161170f565b6024356001600160401b038111610124576106eb90369060040161170f565b906044356001600160401b0381116101245761070b90369060040161170f565b606435906001600160401b0382168203610124576084359061ffff821682036101245761073661181f565b60a435156110075760c43515610ff65760e43515610fe4576305f5e10060e435810290810460e43503610fd05760a43510610fbe5761079960a43530337f0000000000000000000000000000000000000000000000000000000000000000611840565b60015460405160208101914283523360601b60408301526054820152605481526107c2816115d0565b519020946107d86001600160401b038516611898565b946108de605f6107eb61ffff8716611898565b976040519889916a02234b210333634b3b43a160ad1b6020840152855161081981602b860160208a016116ae565b830165010333937b6960d51b602b82015287519061083e826031830160208c016116ae565b01630103a37960e51b6031820152885190610860826035830160208d016116ae565b016d01039b1b432b23ab632b21030ba160951b603582015261088c8251809360206043850191016116ae565b017201030b93934bb32903630ba32b9103a3430b71606d1b60438201526108bd8251809360206056850191016116ae565b0168206d696e757465733f60b81b605682015203603f8101895201876115eb565b602060405180809963a423e78960e01b82525f600483015260c0602483015261090a60c483018b6116cf565b905f60448401526201518060648401525f608484015260a483015203815f60018060a01b037f0000000000000000000000000000000000000000000000000000000000000000165af1968715610fb3575f97610f7f575b5061096d600154611768565b9586600155604051806101e08101106001600160401b036101e08301111761041b576101e0810160405233815260a435602082015260c435604082015260e43560608201525f60808201528860a08201525f60c08201525f60e08201525f6101008201525f6101208201528261014082015283610160820152846101808201526001600160401b0387166101a082015261ffff86166101c0820152875f52600260205260405f2060018060a01b038251166bffffffffffffffffffffffff60a01b8254161781556020820151600182015560408201516002820155606082015160038201556080820151600482015560a08201516005820155610aa460068201610a8960c08501511515829060ff801983541691151516179055565b60e0840151815461ff00191690151560081b61ff0016179055565b6101008201516007820155610acf6101208301511515600883019060ff801983541691151516179055565b6101408201518051906001600160401b03821161041b578190610af56009850154611598565b601f8111610f2f575b50602090601f8311600114610ec1575f92610eb6575b50508160011b915f199060031b1c19161760098201555b6101608201518051906001600160401b03821161041b578190610b51600a850154611598565b601f8111610e66575b50602090601f8311600114610df8575f92610ded575b50508160011b915f199060031b1c191617600a8201555b6101808201518051906001600160401b03821161041b57610bab600b840154611598565b601f8111610da9575b509160209b979593918b999795938d90601f8311600114610cf05795610c9a610cc49661ffff9a96600c610cb6977f14c77a4940f0fd33a03d9d1bc70b9654df868a589f3727f7b905837e4e63a7549f9e9c9780610ca8986001600160401b039e5f92610ce5575b50508160011b915f199060031b1c191617600b8201555b01908a6101a08201511669ffff00000000000000006101c0845493015160401b169169ffffffffffffffffffff1916171790556040519b60a4358d5260208d9060c4359101528c604060e43591015260608d015261014060808d01526101408c01906116cf565b908a820360a08c01526116cf565b9088820360c08a01526116cf565b9086820360e08801526116cf565b9616610100840152166101208201528033940390a360015f55604051908152f35b015190505f80610c1c565b90600b849c9b9a999897969c015f528e5f20915f5b601f1985168110610d8e57507f14c77a4940f0fd33a03d9d1bc70b9654df868a589f3727f7b905837e4e63a7549b9c61ffff9a9996600c610cb697600188610ca898610cc49d986001600160401b039f9b98610c9a99601f19811610610d76575b505050811b01600b820155610c33565b01515f1960f88460031b161c191690555f8080610d66565b8282015184558f9c5060019093019260209283019201610d05565b600b84015f5260205f20601f840160051c810160208510610de6575b601f830160051c82018110610ddb575050610bb4565b5f8155600101610dc5565b5080610dc5565b015190508c80610b70565b9250600a84015f5260205f20905f935b601f1984168510610e4b576001945083601f19811610610e33575b505050811b01600a820155610b87565b01515f1960f88460031b161c191690558c8080610e23565b81810151835560209485019460019093019290910190610e08565b909150600a84015f5260205f20601f840160051c810160208510610eaf575b90849392915b601f830160051c82018110610ea1575050610b5a565b5f8155859450600101610e8b565b5080610e85565b015190508c80610b14565b9250600984015f5260205f20905f935b601f1984168510610f14576001945083601f19811610610efc575b505050811b016009820155610b2b565b01515f1960f88460031b161c191690558c8080610eec565b81810151835560209485019460019093019290910190610ed1565b909150600984015f5260205f20601f840160051c810160208510610f78575b90849392915b601f830160051c82018110610f6a575050610afe565b5f8155859450600101610f54565b5080610f4e565b9096506020813d602011610fab575b81610f9b602093836115eb565b8101031261012457519587610961565b3d9150610f8e565b6040513d5f823e3d90fd5b60405163070f6eed60e11b8152600490fd5b634e487b7160e01b5f52601160045260245ffd5b604051634ac93b8960e01b8152600490fd5b60405162bfc92160e01b8152600490fd5b604051635972996f60e11b8152600490fd5b3461012457602080600319360112610124576004359061103761181f565b5f828152600282526040902080546001600160a01b039290831615610465576006820192835460ff81166104535782600585015460246040518095819363684e62bf60e11b835260048301527f0000000000000000000000000000000000000000000000000000000000000000165afa918215610fb3575f926111ac575b50811561119a5761ffff1916600182811460081b61ff001691909117178455835460081c60ff161561114457908291600760ff7f22a47946a6d98f17b87eb7dd5ad4e81174c84cf40a5b5f16a29477cdf1b409709661111f60046060980154600288015490611755565b838701555b5460081c169301549160405193151584528301526040820152a260015f55005b919060018201549261115f6004840154600285015490611755565b8401809411610fd057600760ff7f22a47946a6d98f17b87eb7dd5ad4e81174c84cf40a5b5f16a29477cdf1b409709660609683870155611124565b60405163405bded960e11b8152600490fd5b9091508281813d83116111d4575b6111c481836115eb565b81010312610124575190866110b5565b503d6111ba565b34610124575f366003190112610124576020604051620151808152f35b34610124575f366003190112610124576020600154604051908152f35b34610124575f366003190112610124576040517f00000000000000000000000000000000000000000000000000000000000000006001600160a01b03168152602090f35b34610124576020366003190112610124576004355f52600260205260405f20600160a01b6001900381541660018201549060028301549260038101549160048201549060058301549060068401546007850154600886015460ff1691600987016112c29061160c565b946112cf600a890161160c565b966112dc600b8a0161160c565b98600c0154996040519c8d9c8d6101e09981526020015260408d015260608c015260808b015260a08a015260ff8116151560c08a015260081c60ff16151560e0890152610100880152151561012087015280610140870152850161133f916116cf565b848103610160860152611351916116cf565b838103610180850152611363916116cf565b906001600160401b0381166101a084015260401c61ffff166101c08301520390f35b34610124576020366003190112610124576004356113a161181f565b5f81815260026020526040902080549091906001600160a01b031633036114795760ff600683015416156105e457600882019182549060ff82166114675760070180549384156114555760015f9360ff19161790555561142360405163a9059cbb60e01b602082015233602482015283604482015260448152610579816115d0565b6040519182527ff440aec6b52895984d061d622e6edeba6210f7c3e059be920663140c084560d760203393a360015f55005b6040516367e3990d60e01b8152600490fd5b604051636507689f60e01b8152600490fd5b6040516371bedc0960e11b8152600490fd5b346101245760208060031936011261012457600480355f9081526002835260409081902060050154905163684e62bf60e11b81529182015281816024817f00000000000000000000000000000000000000000000000000000000000000006001600160a01b03165afa908115610fb3575f9161150b575b50604051908152f35b90508181813d8311611531575b61152281836115eb565b81010312610124575182611502565b503d611518565b346101245760209061154936611572565b5f9182526003845260408083206001600160a01b03909216835290845290205460ff1615158152f35b604090600319011261012457600435906024356001600160a01b03811681036101245790565b90600182811c921680156115c6575b60208310146115b257565b634e487b7160e01b5f52602260045260245ffd5b91607f16916115a7565b608081019081106001600160401b0382111761041b57604052565b90601f801991011681019081106001600160401b0382111761041b57604052565b9060405191825f825461161e81611598565b908184526020946001916001811690815f1461168c575060011461164e575b50505061164c925003836115eb565b565b5f90815285812095935091905b81831061167457505061164c93508201015f808061163d565b8554888401850152948501948794509183019161165b565b9250505061164c94925060ff191682840152151560051b8201015f808061163d565b5f5b8381106116bf5750505f910152565b81810151838201526020016116b0565b906020916116e8815180928185528580860191016116ae565b601f01601f1916010190565b6001600160401b03811161041b57601f01601f191660200190565b81601f8201121561012457803590611726826116f4565b9261173460405194856115eb565b8284526020838301011161012457815f926020809301838601378301015290565b81810292918115918404141715610fd057565b5f198114610fd05760010190565b5f52600260205260405f2060ff60068201541615611795576007015490565b505f90565b5f52600260205260405f2090600360205260405f209060018060a01b03165f52602052600660405f209101549060ff821615918215611810575b508115611803575b81156117f4575b506117f0576305f5e10090565b5f90565b60ff91505460081c165f6117e3565b805460ff161591506117dc565b60081c60ff161591505f6117d4565b60025f541461182e5760025f55565b604051633ee5aeb560e01b8152600490fd5b6040516323b872dd60e01b60208201526001600160a01b03928316602482015292909116604483015260648083019390935291815260a08101918183106001600160401b0384111761041b5761164c926040526119ff565b805f917a184f03e93ff9f4daa797ed6e38ed64bf6a1f010000000000000000808210156119f1575b506d04ee2d6d415b85acef8100000000808310156119e2575b50662386f26fc10000808310156119d3575b506305f5e100808310156119c4575b50612710808310156119b5575b5060648210156119a5575b600a8092101561199b575b6001908160216001860195611931876116f4565b9661193f60405198896115eb565b80885261194e601f19916116f4565b01366020890137860101905b611966575b5050505090565b5f19019083906f181899199a1a9b1b9c1cb0b131b232b360811b8282061a8353049182156119965791908261195a565b61195f565b916001019161191d565b9190606460029104910191611912565b6004919392049101915f611907565b6008919392049101915f6118fa565b6010919392049101915f6118eb565b6020919392049101915f6118d9565b60409350810491505f6118c0565b905f602091828151910182855af115610fb3575f513d611a5057506001600160a01b0381163b155b611a2e5750565b604051635274afe760e01b81526001600160a01b039091166004820152602490fd5b60011415611a2756fea2646970667358221220b4023a5f232100bffb1287703e1303cce1d904d66b114c9a177bf7e383f2d8b864736f6c63430008170033","linkReferences":{}},"methodIdentifiers":{"ORACLE()":"38013f02","PAYOUT_PER_POLICY()":"c7954df1","QUESTION_TIMEOUT()":"4a3382e5","TEMPLATE_ID()":"87eb502e","TOKEN()":"82bfefc8","YES_ANSWER()":"93286d69","buyInsurance(uint256)":"a86a658c","calculateBuyerPayout(uint256,address)":"ef97649c","calculateProducerRefund(uint256)":"9bffa195","claimPayout(uint256)":"8a69614e","createInsurance(string,string,string,uint64,uint16,uint256,uint256,uint256)":"54f88ce5","flights(uint256)":"15ccf70f","getFlightInfo(uint256)":"ccd384ce","getFlightMetadata(uint256)":"e2fbe39a","getOracleAnswer(uint256)":"13e9baef","getTotalFlights()":"3b31eeae","hasClaimedPayout(uint256,address)":"e8429b9e","hasPurchasedPolicy(uint256,address)":"03f83fa8","policies(uint256,address)":"58fb1039","settleInsurance(uint256)":"52c68686","withdrawFunds(uint256)":"155dd5ee"},"id":33}